:020000040800F2
:1000000040050020ED010008211700081D17000819
:100010001F170008F9020008AD1F000800000000CB
:10002000000000000000000000000000251700088C
:10003000FB02000800000000231700082717000833
:10004000070200080702000807020008070200086C
:10005000070200080702000807020008070200085C
:10006000070200080702000807020008070200084C
:10007000070200080702000807020008070200083C
:10008000070200080000000007020008070200083D
:10009000070200080702000807020008070200081C
:1000A000070200080702000807020008070200080C
:1000B00007020008070200080702000807020008FC
:1000C00007020008070200080702000807020008EC
:1000D00007020008070200080702000807020008DC
:1000E00007020008070200080702000807020008CC
:1000F00007020008070200080702000800000000CD
:1001000000000000070200080000000007020008CD
:100110000702000800000000A117000807020008FD
:10012000070200080702000807020008070200088B
:10013000070200080000000000000000070200089D
:10014000070200080702000800000000000000008D
:10015000000000000000000000000000000000009F
:10016000000000000000000000000000070200087E
:10017000070200080000000000000000000000006E
:10018000000000000702000800000000000000005E
:10019000000000000000000000000000000000005F
:1001A000000000000000000007020008070200082D
:1001B000070200080702000807020008000000000C
:1001C000000000000702000800000000000000001E
:1001D0000702000807020008DFF80CD000F07AF8E8
:1001E00000480047D51F000840050020064880470A
:1001F00006480047FEE7FEE7FEE7FEE7FEE7FEE70C
:10020000FEE7FEE7FEE7FEE791170008D9010008C8
:100210002DE9F05F0546002092469B46884606463B
:10022000814640241BE0284641464746224600F0CE
:1002300041F853465A46C01A914110D31146184608
:10024000224600F028F82D1A67EB01084F46224697
:100250000120002100F01FF817EB00094E41201E7D
:10026000A4F10104DFDC484631462A464346BDE896
:10027000F09FD2B201E000F8012B491EFBD270477B
:100280000022F6E710B513460A4604461946FFF762
:10029000F0FF204610BD202A04DB203A00FA02F1CC
:1002A000002070479140C2F1200320FA03F3194364
:1002B00090407047202A04DB203A21FA02F0002106
:1002C000704721FA02F3D040C2F120029140084366
:1002D00019467047064C074D06E0E06840F0010300
:1002E00094E8070098471034AC42F6D3FFF778FF44
:1002F000C4210008E4210008FEE77047EFF31080F6
:1003000072B6FEE72DE9FC4F604A06274FF0000B5E
:100310004FF001094FF00008904200F1384208BF49
:1003200005274FEAB223052B38BF4FEAB227002238
:1003300000970C6834FA02F308BFBDE8FC8F09FA95
:1003400002F314EA030A00F09B804E6806F00304EF
:10035000671E012F1ED80327D0F808C0D1F80CE083
:1003600007FA08F90EFA08F72CEA090C4FEA420ED0
:1003700047EA0C078760C6F3001707FA02FC4768D4
:1003800027EA030343EA0C036FEA090C4FF0010963
:1003900043600AE00323032CC64603FA08F36FEA1E
:1003A000030C02D1C64603241EE0C3688F68022CEA
:1003B00003EA0C0307FA0EF743EA0703C36013D1FD
:1003C0006FF003050BF01C030F2405EA52069C4056
:1003D0000644376A27EA04040F6907FA03F3234344
:1003E00033624E6806F00304076804FA0EF316F44D
:1003F000403F07EA0C0743EA0703036040D0264B5F
:10040000234D264C0BF00C061F461B68A44643F0F8
:1004100001033B603B6803F00103019322F00303F7
:10042000019F2B441F590F24B440A743009C04FA9A
:1004300006F6374343F80C70AB684E6843EA0A0788
:10044000F40258BF23EA0A07124BAF60B4029C467D
:100450001B6843EA0A0758BF23EA0A07CCF8007072
:10046000B4036B6843EA0A0758BF23EA0A076F60C0
:10047000F6032B6843EA0A0758BF23EA0A072F60EE
:100480000BF1040B08F10208013252E70014004896
:10049000000401400C0401406010024008FCFFFF12
:1004A00005480068704700BF1B48034940680A6858
:1004B00010440860704700BF3C01002080B5032055
:1004C00000F072F80F2000F007F808B1012080BD9D
:1004D00000F024F8002080BD70B50F4E044670680F
:1004E000B0B14FF47A71B1FBF0F060490968B1FB2B
:1004F000F0F000F041FD01250F2C0AD848B94FF06B
:10050000FF3021460022002500F030F8346000E082
:100510000125284670BD00BF0000002082B00B48B6
:10052000816841F001018160816801F00101019160
:100530000199016841F080510160006800F080502D
:100540000090009802B000F095B800BF581002402B
:10055000002808DB00F01F010122400902FA01F126
:10056000014A42F82010704700E100E080B5144BCA
:100570001B68C3F3022CBCF1030E8CF007034FF091
:10058000FF3C38BF4FF0000E042B28BF04230CFAA9
:1005900003F399430CFA0EF301FA0EF19A43114357
:1005A000BDE8804001F004BD05494FF6FF030A682D
:1005B0001A4060F30A22034810430860704700BFE6
:1005C0000CED00E00000FA0520B3B949B0F5007F5A
:1005D0000A6845D1D1F8800040F48070C1F88000ED
:1005E00002F4C060B0F5806F3ED10868012262F36A
:1005F0004A20322208601D48006850431C4AB0FB64
:10060000F2F0C0434A6918B1013012F48062F9D1A6
:10061000486920E0A6480168D0F8802001F4C06154
:1006200022F48072B1F5806FC0F880201CD101687F
:10063000012262F34A21322201600C4909685143C8
:100640000B4AB1FBF2F1C943426919B1013112F40D
:100650008062F9D14069400544BF0320704703E040
:10066000022060F34A220A60002070470800002040
:1006700040420F000248016841F480410160704728
:10068000087000402DE9FC4104468078874E000741
:1006900001D400205DE0F06CC0000BD4F06C4FF092
:1006A000010840F08050F064F06C00F08050019040
:1006B000019801E04FF000087D4F386840F48070E9
:1006C0003860FFF7EDFE05463868C00506D4FFF731
:1006D000E7FE401B0228F7D9032033E0D6F8840058
:1006E00010F4407025D0216C884211D0D6F88400D7
:1006F000D6F8841041F4803120F44070C6F884109C
:10070000D6F8841021F48031C6F88410C6F884002D
:10071000C0070ED0FFF7C4FE054641F28837D6F871
:100720008400800705D4FFF7BBFE401BB842F6D912
:10073000D2E7D6F88400216C20F440700843C6F854
:1007400084000020B8F1000F1EBFF16C21F0805131
:10075000F1642168CA0705D0F26F636822F00302D2
:100760001A43F2678A0705D5F26FA36822F00C02DC
:100770001A43F2674A0705D5F26FE36822F03002A8
:100780001A43F2670A0705D5F26F236922F0C00207
:100790001A43F2678A0605D5F26F636922F4406254
:1007A0001A43F2674A0605D5F26FA36922F4405254
:1007B0001A43F2670A0605D5F26FE36922F4404254
:1007C0001A43F267CA0505D5F26F236A22F4403254
:1007D0001A43F2678A0505D5F26F636A22F4402254
:1007E0001A43F2674A050DD5F26FA36A22F440124C
:1007F000B3F5801F42EA0302F26702BF326842F497
:10080000801232600A050DD5F26FE36A22F44002CD
:10081000B3F5800F42EA0302F26702BF326842F486
:1008200080123260CA040DD5F26F236B22F0407241
:10083000B3F1807F42EA0302F26702BF326842F4FA
:10084000801232608A040DD5F26F636B22F0406231
:10085000B3F1006F42EA0302F26702BF326842F46A
:10086000801232604A040DD5F26FA36B22F0406211
:10087000B3F1006F42EA0302F26702BF326842F44A
:100880008012326009040DD5F16FE26B21F0405106
:10089000B2F1805F41EA0201F16702BF316841F4C1
:1008A0008031316002B0BDE8F08100BF0C10024021
:1008B000007000402DE9F047002854D0724B0446E8
:1008C0000D46186800F00F00884209D2186820F021
:1008D0000F0028431860186800F00F00A84242D1AA
:1008E0002068934E9A46C107B14602D14FF00008E6
:1008F0006BE06168032930D156F8081C890132D5B4
:100900007168726873687768B4460226C7F34167F6
:1009100001F0030106EB4707864E032904BF41F2AD
:100920000026C0F27A06C2F30311C3F30622013196
:10093000B6FBF1F15143554AB1FBF7F1914224D98D
:10094000DCF80010664611F0F00F16D0800701D5D4
:10095000A06890B14FF000081AE056F8080C022980
:1009600004D1800304D40120BDE8F0874005FAD506
:1009700000F0AEF845498842ECD9306808214FF0C4
:10098000800861F30710306002E04FF0000866460F
:100990003068616820F0030008433060FFF780FD95
:1009A000064641F288374846D9F80000616800F0F1
:1009B0000C00B0EB810F05D0FFF772FD801BB84231
:1009C000F1D939E020684E465346810706D4B8F184
:1009D000800F16D1316821F0F00111E0410742BFCC
:1009E000316841F4E0613160010704D531680722C4
:1009F00062F30D2131603168A26821F0F0011143EA
:100A00003160196801F00F01A9421AD9186820F065
:100A10000F0028431860FFF743FD064641F2883770
:100A20005046DAF8000000F00F00A84207D0FFF7A8
:100A300037FD801BB842F3D90320BDE8F08720685A
:100A40004E46410705D53168E26821F4E061114363
:100A50003160000706D53068216920F4605040EA13
:100A6000C100306000F034F83168094AC1F3031165
:100A7000515C01F01F01C840134908600548006837
:100A8000BDE8F047FFF728BD0020024000B4C404D1
:100A900082210008000000200B4825490B4A00680D
:100AA0000968C1F30221515C01F01F01C840704781
:100AB00005481F49054A00680968C1F3C221515C15
:100AC00001F01F01C8407047080000209221000873
:100AD0001749184A086800F00C000428104608BF9F
:100AE0007047086800F00C031348082B1ED00B68F1
:100AF00003F00C030C2B1CBF002070474B6803F065
:100B00000303032B08BF02464868C0F303100130FB
:100B1000B2FBF0F04A68C2F3062249685043022251
:100B2000C1F3416102EB4101B0FBF1F0704700BF3E
:100B3000081002400024F40000127A002DE9FC4164
:100B4000002800F0AA8104460078DF4EC0071ED1BD
:100B50002078800747D42078000740F19A806169A7
:100B6000D6F89400002900F0838040F00100C6F818
:100B70009400FFF795FC0546D6F89400800700F135
:100B80008880FFF78DFC401B0228F5D9C9E0B168C9
:100B9000F06801F00C0108294BD0032281F00C0110
:100BA00022EA00000844B0FA80F0400941D16768A9
:100BB000B7F5803F07D03068B7F5A02F40F0CC8064
:100BC00040F480203060306840F480303060FFF7BF
:100BD00067FC054630688003BAD4FFF761FC401B10
:100BE0006428F7D99DE0B068F16800F00C00042893
:100BF00028D001F0030180F00C0081F002010844CC
:100C0000B0FA80F040091DD1E1683068002900F099
:100C10008A8040F480703060FFF742FC05463068FF
:100C2000400500F19180FFF73BFC401B0228F6D9FC
:100C300077E0306880037FF58BAF606800287FF431
:100C400087AF2AE13068400503D5E068002800F04E
:100C500024817068216920F0FE4040EA01607060E4
:100C6000C0480068FFF738FC002840F0168172E7A2
:100C700020F00100C6F89400FFF712FC0546D6F8F4
:100C80009400800705D5FFF70BFC401B0228F6D91E
:100C900047E02078400740F19A80B06DC0000BD447
:100CA000B06D4FF0010840F08050B065B06D00F0BD
:100CB00080500190019801E04FF00008AA4F386879
:100CC000C0050FD4386840F480703860FFF7E8FB47
:100CD00005463868C00505D4FFF7E2FB401B022833
:100CE000F7D91EE0A768012F07D0D6F89000052F8E
:100CF0004AD140F00400C6F89000D6F8900040F0C9
:100D00000100C6F89000FFF7CBFB054641F288379B
:100D1000D6F89000800753D4FFF7C2FB401BB842BF
:100D2000F6D90320BAE020F480703060FFF7B8FBFA
:100D30000546306840057FF50EAFFFF7B1FB411B5C
:100D400003200229F5D9A9E07068216920F0FE404E
:100D500040EA01607060FEE620F480303060306868
:100D600020F480203060FFF79BFB0546002F7FF4C6
:100D700031AF306880037FF5EBAEFFF791FB411B8D
:100D800003206429F5D989E020F00100C6F890001D
:100D9000D6F8900020F00400C6F89000FFF780FB22
:100DA0000546002FB2D141F28837D6F8900080076F
:100DB00006D5FFF775FB411B0320B942F5D96DE05D
:100DC000B8F1000F1EBFB06D20F08050B0652078E4
:100DD000800627D5A169D6F8980089B140F00100B6
:100DE000C6F89800FFF75CFB0546D6F89800800728
:100DF00018D4FFF755FB411B03200229F5D94DE01C
:100E000020F00100C6F89800FFF74AFB0546D6F827
:100E10009800800706D5FFF743FB411B03200229FA
:100E2000F5D93BE0E069002800F09A80B16801F054
:100E30000C010C2935D101282FD0F068216A00F06F
:100E400003028A4229D1616A6FF00F0202EB01119D
:100E500000F0F0028A4220D1A16A00F4FE42B2EB17
:100E6000012F1AD1E16A00F07842B2EBC16F14D1C0
:100E7000216B404A02EA015100F4C002A1F50011C1
:100E80008A420AD1616B4FF07E4200F0C06002EAF4
:100E9000016101F17E41884262D0012002B0BDE8CB
:100EA000F0813168022821F0807131600ED1FFF7A6
:100EB000F7FA0546306880011DD5FFF7F1FA411BAE
:100EC00003200229F6D9E9E700100240F06827491B
:100ED00020F00300F060F0680840F060FFF7E0FAEF
:100EE0000446306880013BD5FFF7DAFA011B032086
:100EF0000229F6D9D2E704F12007F0686FF00F0558
:100F00008ECF05EB02121A4D28400843216B104387
:100F1000184A40EA032002EA01514FF07E42A1F54F
:100F200000110843616B40EAC76002EA016101F108
:100F30007E410843F060306840F080703060F068B7
:100F400040F08070F060FFF7ABFA04463068800133
:100F500006D4FFF7A5FA011B03200229F6D99DE765
:100F600000209BE70000002000700040FFFFEEFE25
:100F70000C809F010000E0FF411E0020B0EB116FCC
:100F80001CBF01207047044AF023516003490B70D5
:100F9000072190601160704710E000E023ED00E051
:100FA000704770477047000090F83C20012A01D13B
:100FB000022151E0F0B50122284D80F83C20D1E912
:100FC00000C3D1E902422B4024F4705522F47C5234
:100FD0008B4C2A431A432CF477231A430B6923F4CE
:100FE00076231A434B691A430B6B22F4742223F4C1
:100FF00070231A438B6942EA03430268A24202D07B
:101000007D4DAA4203D1CD6923F080532B43A242E8
:1010100002D0794DAA4219D1A4460D6AD1E90946F8
:101020000F4F23F07C73624507EA065743EA070334
:1010300025F0007743EA070343EA040302D06E4C2D
:10104000A24203D1C96A23F000530B430021536429
:1010500080F83C10BDE8F04008467047FF87F0FF7D
:101060000000F0FC704770477047000090F83C307B
:101070000222012B37D070B580F83D200122604D4F
:1010800080F83C20026854689368AA4202D0F24E6D
:10109000B24203D14E6824F470043443134EB2F1CB
:1010A000804F06EA04060C6846EA040656600DD036
:1010B0004F4CA2420AD04F4CA24207D0E64CA2426B
:1010C00004D04E4CA24201D0AA4204D1896823F038
:1010D0008003194391600022012180F83C2080F8B0
:1010E0003D10BDE870401046704700BF8FFFFFFD08
:1010F000704760B310B5044690F83D0028B9002051
:1011000084F83C00204600F025F80220211D84F8D8
:101110003D00206800F04AFB012084F8480084F874
:101120003E0084F83F0084F8400084F8410084F8D1
:10113000420084F8430084F8440084F8450084F8B1
:10114000460084F8470084F83D00002010BD0120CF
:101150007047000000680C49884218BF7047E0B52E
:101160000A480022016841F0100101600021006876
:1011700000F01000019001983620FFF7F7F93620B3
:10118000BDE88C40FFF7E4B9001000405810024061
:1011900090F83D1001291CBF01207047022180F802
:1011A0003D100168C868B1F1804F40F00100C8608F
:1011B0000ED00F4881420BD00E48814208D0E14842
:1011C000814205D00D48814202D00D48814209D1AB
:1011D00088680C4A02400020062A08D0B2F5803FF9
:1011E00008BF7047086840F00100086000207047A1
:1011F0000004004000080040002C01400040014075
:101200000034014007000100704710B50446006833
:101210000169890744BFC1685FEA81715BD40169D4
:10122000490744BFC1685FEA417160D40169090799
:1012300044BFC1685FEA017166D40169C90644BF51
:10124000C1685FEAC1616BD40169C9071CBFC1688D
:101250005FEAC17171D10169090644BFC1685FEAE3
:10126000016172D40169C90544BFC1685FEA0161C7
:1012700073D40169490644BFC1685FEA416174D40F
:101280000169890644BFC1685FEA816175D401695B
:10129000C90244BFC1685FEAC12176D401698902ED
:1012A00044BFC1685FEA812177D40169490244BF24
:1012B000C1685FEA412178D40169090246BFC1686B
:1012C0005FEA012110BD6FF4000101612046BDE815
:1012D0001040FFF70DBF6FF002010161012121777E
:1012E0008069800769D02046FFF78EFF6BE06FF0C2
:1012F0000401016102212177806910F4407F66D0EA
:101300002046FFF781FF68E06FF0080101610421CA
:101310002177C069800764D02046FFF775FF66E03B
:101320006FF01001016108212177C06910F4407F3E
:1013300061D02046FFF768FF63E06FF001010161B3
:10134000204600F005F9206885E76FF08001016113
:101350002046FFF726FE206884E76FF48071016164
:101360002046FFF71DFE206883E76FF04001016112
:10137000204600F0FBF8206882E76FF02001016151
:101380002046FFF70FFE206881E76FF480110161AE
:101390002046FFF768FE206880E76FF400110161C6
:1013A0002046FFF75FFE20687FE76FF48001016150
:1013B0002046FFF759FE20687EE7204600F07EF8C1
:1013C000204600F0C3F800202077206827E7204659
:1013D00000F074F8204600F0B9F80020207720686B
:1013E00024E7204600F06AF8204600F0AFF800201D
:1013F0002077206821E7204600F060F8204600F0C2
:10140000A5F80020207720681EE7000010B586B000
:10141000044601A81421FEF733FF20684949884299
:1014200018D1BC48016841F00101016001A90068C0
:1014300000F0010000900098062005900020CDE902
:101440000300022002904FF4E06001904FF09040C2
:10145000FEF758FF06B010BD002C014010B5044641
:1014600090F83C00012804BF022010BD4FEAB202F0
:101470000120052A84F83C001CD8DFE802F00307AD
:101480000B0F1317206800F007FA12E0206800F035
:1014900037FA0EE0206800F06BFA0AE0206800F0EE
:1014A000A1FA06E0206800F0D7FA02E0206800F018
:1014B00001FB0020002184F83C1010BD704760B390
:1014C00010B5044690F83D0028B9002084F83C008F
:1014D000204600F025F80220211D84F83D002068F8
:1014E00000F064F9012084F8480084F83E0084F894
:1014F0003F0084F8400084F8410084F8420084F8FA
:10150000430084F8440084F8450084F8460084F8D9
:10151000470084F83D00002010BD01207047000006
:101520000068D649884218BF704781B006480168F4
:1015300041F400610160006800F4006000900098D0
:1015400001B07047002C014060100240704700005D
:1015500000680449884218BF704703480168013198
:10156000016070470010004010000020704790F8A4
:101570008010012901D1022112E02421C0F8841039
:1015800002681368116821F0010123F00053116013
:10159000002141661360202280F88010C0F884206A
:1015A00008467047B0B5044690F88000012804BF93
:1015B0000220B0BD2420C4F88400012084F88000FB
:1015C00020680568026822F001020260826822F049
:1015D000606211438160204600F09CFA206820215F
:1015E0000560002084F88000C4F88410B0BDB0B558
:1015F000044690F88000012804BF0220B0BD2420DA
:10160000C4F88400012084F880002068056802681E
:1016100022F001020260826822F060421143816080
:10162000204600F077FA206820210560002084F829
:101630008000C4F88410B0BD10B5B0B10446D0F835
:10164000840028B9002084F88000204600F026F8A5
:101650002420C4F884002068016821F001010160A1
:10166000204600F01DFB012801D1012010BDA06A19
:1016700010B1204600F078FA2068416821F49041CA
:101680004160816821F02A018160016841F0010117
:1016900001602046BDE8104000F0CFBAB0B598B068
:1016A000044613A81421FEF7EBFD02A84421FEF71F
:1016B000E7FD20681649884227D1002402A80225A8
:1016C00004940295FEF7DEFF08B1FEF717FE1148FD
:1016D000C16841F40031C160C16801F40031019179
:1016E0000199016841F00201016013A9006800F04E
:1016F0000200019001980720CDE916401820CDE99D
:10170000145413900448FEF7FDFD18B0B0BD00BF9F
:10171000004400404C10024000040048FEE7FEE791
:10172000FEE770477047FEF7BFBEB0B594B006AC99
:10173000142104F10800FEF7A3FD01A81421FEF70F
:101740009FFD4FF40070FEF73FFF02204B21032561
:101750001390CDE91100CDE90F01CDE90D054FF44E
:1017600080300790012006902046FFF7E7F968B91E
:1017700000200421CDE90400CDE902500F200190A2
:1017800001A8FFF797F808B914B0B0BDFEF7B6FD91
:101790000248016841F470010160704788ED00E083
:1017A0000148FFF732BD00BF60000020B0B50368FC
:1017B000324DB0F1804F0AD0314A904207D0314AC1
:1017C000904204D0304A904201D0A84238D105F569
:1017D000C0544A6823F07003041BB4FA84F4134322
:1017E00005F5E0524FEA541E05F5A054821A041B79
:1017F000B2FA82F2B4FA84F452094FEA541CCC686B
:1018000023F4407323434C6923F08003002A43EA06
:10181000040303608B68C3620B6883620BD1BEF163
:10182000000F08D1A84206D005F50062904202D010
:10183000BCF1000F01D00969016301214161B0BD14
:1018400005F5C05405F5E052041B821AB4FA84F47D
:10185000B2FA82F24FEA541E05F5A0545209041B55
:10186000B4FA84F44FEA541C084CA042C7D0084C88
:10187000A042C4D0074CA042C1D0C4E7002C014014
:1018800000040040000800400034014000400140D6
:10189000004801400044014070B5026A22F0010294
:1018A0000262026AD0F804E083698D680C6822F055
:1018B000020215434A4A1A4042EA040C944A02447E
:1018C0004FEAB222072A13D8012303FA02F212F0D8
:1018D000E50F0DD0CE68D1E905342EF440721A43DD
:1018E00026F0040342EA040E25F00C0243EA020546
:1018F000C0F804E0C0F818C049684163056270BDD3
:1019000070B5026A22F010020262026A46688369B8
:101910008D680C6822F0200242EA051E4D4A1A40EA
:101920006FF0040342EA042C794A024403EBB22329
:10193000032B0DD34FEAB222022A00D082B9CA6823
:101940006FF0400303EA02122EF0C00342EA030ED6
:10195000D1E9052326F4406444EA820242EA830680
:101960004660C0F818C049688163C0F820E070BDC7
:1019700070B5026A22F480720262026A4668C36924
:101980008D680C6822F4007242EA052E144A1A404F
:101990006FF0040342EA040C5D4A024403EBB223F5
:1019A000032B0DD34FEAB222022A00D082B9CA68B3
:1019B00040F2FF4312029A432EF4406342EA030EC0
:1019C000D1E9052326F4405444EA021242EA031600
:1019D0004660C0F81CC04968C163C0F820E070BD13
:1019E0008CFFFEFF70B5026A22F480520262026A26
:1019F0004668C3698D680C6822F4005242EA053ECD
:101A0000144A1A406FF0040342EA042C404A02448C
:101A100003EBB223032B0DD34FEAB222022A00D0EC
:101A200082B9CA6844F6FF7312039A432EF4404306
:101A300042EA030ED1E9052326F4404444EA821227
:101A400042EA83164660C0F81CC049680164C0F8C9
:101A500020E070BDFF8CFFFE70B5026A22F4803278
:101A60000262026A4668036D8D680C6822F40032D7
:101A700042EA054C0E4A1A4042EA040E244A024445
:101A80004FEAB222072A0AD8012303FA02F212F01F
:101A9000E50F1EBF4A6926F4803343EA02264660FA
:101AA000C0F850E049688164C0F820C070BD00BF34
:101AB0008FFFFEFF70B5026A22F480120262026A92
:101AC0004668036D8D680C6822F4001242EA055CDA
:101AD0000E4A1A4042EA042E0D4A02444FEAB2224C
:101AE000072A0AD8012303FA02F212F0E50F1EBFFB
:101AF0004A6926F4802343EA82264660C0F850E013
:101B00004968C164C0F820C070BD00BFFF8FFFFEF0
:101B100000D4FEBF416ED9B180B50268DFF840C085
:101B2000DFF840E09168C1F3426192681CF801302F
:101B30001EF80110520FC900B1FBF3F11CF802307E
:101B40001EF80220D200B2FBF3F2BDE8804001E0B3
:101B500001220121A0F86810A0F86A20704700BF98
:101B6000BA210008B2210008816ACA0708D00268B9
:101B70005368D0F82CC023F4003343EA0C035360BD
:101B80008A0708D502685368D0F830C023F4803340
:101B900043EA0C0353604A0708D502685368D0F83B
:101BA00034C023F4802343EA0C0353600A0708D5AA
:101BB00002685368D0F838C023F4004343EA0C03AA
:101BC0005360CA0608D502689368D0F83CC023F475
:101BD000805343EA0C0393608A0608D50268936831
:101BE000D0F840C023F4005343EA0C03936080B55F
:101BF0004A0615D5D0F800E0DEF804C0436C2CF49A
:101C00008012B3F5801F42EA0302CEF8042007D108
:101C1000DEF80420836C22F4C0021A43CEF80420BC
:101C20000906BDE8804058BF704701684A68C06C2B
:101C300022F40022104348607047BCB504460020DF
:101C4000C4F88C00FEF72CFC0546206801680907E3
:101C50000BD56FF07E404FF4001100222B46009010
:101C6000204600F039F970B92068006840070CD5AB
:101C70006FF07E404FF4800100222B4600902046FA
:101C800000F02AF908B1032008E02020C4F88400FD
:101C9000C4F88800002084F88000E06602B0B0BD7F
:101CA000F8B5044603688068784D794ED4E904128B
:101CB000B34240EA0100E16940EA02001A6840EAE2
:101CC000010002EA0502734D40EA020018605868FC
:101CD000E26820F4405040EA02005860A0691CBF4E
:101CE000226A10439A682A406C4D10439860AB42B8
:101CF000D86A626A20F00F0040EA0200D8626648A3
:101D000012D0674DAB4211D0664DAB4210D0B342FA
:101D100010D0654DAB4217D1644B69A61B6803F028
:101D2000030356F8235012E0022504E0042502E0E4
:101D3000062500E00A255D4F3F68EF405CA507F0EF
:101D4000030755F8275000E01025B3421ED0B1F527
:101D5000004F0DD10121082D00F28E80DFE805F043
:101D600005242F8C278C8C8C2D00FEF795FE20E00F
:101D70000121082D00F28080DFE805F00539437E5F
:101D80003C7E7E7E4100FEF787FE35E00121082D76
:101D900000F27280DFE805F005704F7048707070D7
:101DA0004D00FEF779FE41E0FEF782FE01E0FEF70E
:101DB0008FFE00285DD0626A01E04FF40040444984
:101DC00031F81210B0FBF1F061684A0802EB4000F4
:101DD0004FF6EF72B0FBF1F0A0F1100191424AD83A
:101DE0004FF6F0710140C0F3420008443FE0FEF7B7
:101DF0005FFE01E0FEF76CFED8B3626A01E04FF4CB
:101E00000040334931F812104FF6EF72B0FBF1F099
:101E1000616800EB5100B0FBF1F0A0F110019142BC
:101E200029D8216880B223E0FEF752FE08B3626A27
:101E300001E04FF40040264931F812106268B0FB0F
:101E4000F1F002EB42030121984215D313039842AB
:101E500012D8010E0002002310EB520041F10001E4
:101E6000FEF7D6F91B4AA0F54071914203D82168CC
:101E7000C860002100E001210020C4E91C004FF0EF
:101E80000110A066084601B0F0BD00BFF369FFCFA6
:101E900000800040FFF4FF110024F40000440040E3
:101EA00000480040004C00400038014088100240CB
:101EB0000000000004000000020000000800000014
:101EC0000100000004000000020000000800000003
:101ED0009A210008FFFC0F002DE9F843DDF820905F
:101EE00004460068984616460F4609F10105C16987
:101EF0003940C91BB1FA81F14909B14216D1002D0F
:101F0000F5D0FEF7CDFAB9F1000F13D0A0EB080021
:101F100048450FD820680168490744BFC1695FEA96
:101F20000151E4D54FF4006101621EE0002001B0D0
:101F3000BDE8F083206850E8000F216820F4D070DD
:101F400041E80002002AF5D1206850E8020F21681C
:101F500020F0010041E80202002AF5D12020C4F857
:101F6000840004F188001AE0206850E8000F21681E
:101F700020F4D07041E80002002AF5D1206850E832
:101F8000020F216820F0010041E80202002AF5D189
:101F90002020C4F88400C4F8880004F18C002021BB
:101FA0000160002084F880000320C0E7FEE7000005
:101FB00010B5074C00F00F03044AB0F1FF3F234473
:101FC000C8BF83180801187010BD00BF00E400E00E
:101FD00014ED00E098B0FEF771FAFFF7A6FB5C483D
:101FE0000024016841F020010160016801F0200136
:101FF00001910199016841F001010160016801F05E
:10200000010101910199016841F0020101601C2167
:10201000006800F00200019001981794CDE9154482
:102020000EA8FEF72DF901A83421FEF729F94A4D33
:1020300048484FF6FF7105F58E32C0E90024C0E92B
:102040000241C0E904448461FFF739FA00287CD1D9
:10205000404815A91794CDE91544FFF707F8002863
:1020600073D10EAC1C212046FEF70AF939482146EF
:102070000022FFF7F3F9002867D136480EA90422A1
:10208000FFF7ECF9002860D132480EA90822FFF7CB
:10209000E5F9002859D101AC14212046FEF7F0F8EB
:1020A00000264FF0007021460D96CDE90B66CDE974
:1020B00009604FF40050CDE9076606902548FEF709
:1020C00073FF002841D12348FFF7A0F9234880215E
:1020D0009522816140F2E731C0E90052C0E9026116
:1020E0000396CDE90166FFF704F870BB1B48002694
:1020F00001A903960196FEF7B9FF30BB184C0C20DE
:102100004FF4E13105F55052C4E90021C4E90266FB
:10211000C4E9046004F118001421FEF7B1F8204668
:10212000FFF78AFA88B90E480021FFF760FA60B914
:102130000B480021FFF736FA38B90948FFF717FABC
:1021400018B90648FFF724F8FEE7FEF7D7F800BFF6
:102150004C100240140000200010004060000020DD
:10216000AC00002002E008C8121F08C1002AFAD102
:1021700070477047002001E001C1121F002AFBD107
:102180007047000000000000000001020304060781
:10219000080900000000010203040100020004001D
:1021A000060008000A000C0010002000400080001B
:1021B00000010101010307010000080402040801F5
:1021C00001010000E82100080000002010000000CC
:1021D00064210008F82100081000002030050000EC
:1021E0007421000800000000100000000100000041
:0821F0000024F40000000000CF
:04000005080001D915
:00000001FF
